{
	"data": {
		"bytecode": {
			"linkReferences": {},
			"object": "608060405234801561001057600080fd5b50610188806100206000396000f3fe608060405234801561001057600080fd5b50600436106100415760003560e01c80632712f51914610046578063844adfd214610050578063afe266091461005a575b600080fd5b61004e610064565b005b61005861006e565b005b6100626100e4565b005b600061006c57fe5b565b60006100e2576040517f08c379a000000000000000000000000000000000000000000000000000000000815260040180806020018281038252600e8152602001807f726571756972652069732062616400000000000000000000000000000000000081525060200191505060405180910390fd5b565b6040517f08c379a000000000000000000000000000000000000000000000000000000000815260040180806020018281038252600f8152602001807f6e6f77206973206e6f7420676f6f64000000000000000000000000000000000081525060200191505060405180910390fdfea2646970667358221220a00d55636bc4e15a17b2162e46008a06036834b5626f47a8942f83d5c8bb9b2664736f6c63430007040033",
			"opcodes": "PUSH1 0x80 PUSH1 0x40 MSTORE CALLVALUE DUP1 ISZERO PUSH2 0x10 JUMPI PUSH1 0x0 DUP1 REVERT JUMPDEST POP PUSH2 0x188 DUP1 PUSH2 0x20 PUSH1 0x0 CODECOPY PUSH1 0x0 RETURN INVALID PUSH1 0x80 PUSH1 0x40 MSTORE CALLVALUE DUP1 ISZERO PUSH2 0x10 JUMPI PUSH1 0x0 DUP1 REVERT JUMPDEST POP PUSH1 0x4 CALLDATASIZE LT PUSH2 0x41 JUMPI PUSH1 0x0 CALLDATALOAD PUSH1 0xE0 SHR DUP1 PUSH4 0x2712F519 EQ PUSH2 0x46 JUMPI DUP1 PUSH4 0x844ADFD2 EQ PUSH2 0x50 JUMPI DUP1 PUSH4 0xAFE26609 EQ PUSH2 0x5A JUMPI JUMPDEST PUSH1 0x0 DUP1 REVERT JUMPDEST PUSH2 0x4E PUSH2 0x64 JUMP JUMPDEST STOP JUMPDEST PUSH2 0x58 PUSH2 0x6E JUMP JUMPDEST STOP JUMPDEST PUSH2 0x62 PUSH2 0xE4 JUMP JUMPDEST STOP JUMPDEST PUSH1 0x0 PUSH2 0x6C JUMPI INVALID JUMPDEST JUMP JUMPDEST PUSH1 0x0 PUSH2 0xE2 JUMPI PUSH1 0x40 MLOAD PUSH32 0x8C379A000000000000000000000000000000000000000000000000000000000 DUP2 MSTORE PUSH1 0x4 ADD DUP1 DUP1 PUSH1 0x20 ADD DUP3 DUP2 SUB DUP3 MSTORE PUSH1 0xE DUP2 MSTORE PUSH1 0x20 ADD DUP1 PUSH32 0x7265717569726520697320626164000000000000000000000000000000000000 DUP2 MSTORE POP PUSH1 0x20 ADD SWAP2 POP POP PUSH1 0x40 MLOAD DUP1 SWAP2 SUB SWAP1 REVERT JUMPDEST JUMP JUMPDEST PUSH1 0x40 MLOAD PUSH32 0x8C379A000000000000000000000000000000000000000000000000000000000 DUP2 MSTORE PUSH1 0x4 ADD DUP1 DUP1 PUSH1 0x20 ADD DUP3 DUP2 SUB DUP3 MSTORE PUSH1 0xF DUP2 MSTORE PUSH1 0x20 ADD DUP1 PUSH32 0x6E6F77206973206E6F7420676F6F640000000000000000000000000000000000 DUP2 MSTORE POP PUSH1 0x20 ADD SWAP2 POP POP PUSH1 0x40 MLOAD DUP1 SWAP2 SUB SWAP1 REVERT INVALID LOG2 PUSH5 0x6970667358 0x22 SLT KECCAK256 LOG0 0xD SSTORE PUSH4 0x6BC4E15A OR 0xB2 AND 0x2E CHAINID STOP DUP11 MOD SUB PUSH9 0x34B5626F47A8942F83 0xD5 0xC8 0xBB SWAP12 0x26 PUSH5 0x736F6C6343 STOP SMOD DIV STOP CALLER "
		},
		"gasEstimates": {
			"creation": {
				"codeDepositCost": "78400",
				"executionCost": "129",
				"totalCost": "78529"
			},
			"external": {
				"assertNow()": "129",
				"requireNow()": "274",
				"revertNow()": "280"
			}
		},
		"methodIdentifiers": {
			"assertNow()": "2712f519",
			"requireNow()": "844adfd2",
			"revertNow()": "afe26609"
		}
	},
	"abi": [
		{
			"inputs": [],
			"name": "assertNow",
			"outputs": [],
			"stateMutability": "pure",
			"type": "function"
		},
		{
			"inputs": [],
			"name": "requireNow",
			"outputs": [],
			"stateMutability": "pure",
			"type": "function"
		},
		{
			"inputs": [],
			"name": "revertNow",
			"outputs": [],
			"stateMutability": "pure",
			"type": "function"
		}
	]
}