{
	"lecture/lec36_call.sol": {
		"add": {
			"abi": [
				{
					"anonymous": false,
					"inputs": [
						{
							"indexed": false,
							"internalType": "string",
							"name": "_str",
							"type": "string"
						}
					],
					"name": "JustFallback",
					"type": "event"
				},
				{
					"anonymous": false,
					"inputs": [
						{
							"indexed": false,
							"internalType": "string",
							"name": "_str",
							"type": "string"
						}
					],
					"name": "JustReceive",
					"type": "event"
				},
				{
					"stateMutability": "nonpayable",
					"type": "fallback"
				},
				{
					"inputs": [
						{
							"internalType": "uint256",
							"name": "_num1",
							"type": "uint256"
						},
						{
							"internalType": "uint256",
							"name": "_num2",
							"type": "uint256"
						}
					],
					"name": "addNumber",
					"outputs": [
						{
							"internalType": "uint256",
							"name": "",
							"type": "uint256"
						}
					],
					"stateMutability": "pure",
					"type": "function"
				},
				{
					"stateMutability": "payable",
					"type": "receive"
				}
			],
			"devdoc": {
				"kind": "dev",
				"methods": {},
				"version": 1
			},
			"evm": {
				"assembly": "    /* \"lecture/lec36_call.sol\":75:471  contract add{\r... */\n  mstore(0x40, 0x80)\n  callvalue\n  dup1\n  iszero\n  tag_1\n  jumpi\n  0x00\n  dup1\n  revert\ntag_1:\n  pop\n  dataSize(sub_0)\n  dup1\n  dataOffset(sub_0)\n  0x00\n  codecopy\n  0x00\n  return\nstop\n\nsub_0: assembly {\n        /* \"lecture/lec36_call.sol\":75:471  contract add{\r... */\n      mstore(0x40, 0x80)\n      jumpi(tag_1, lt(calldatasize, 0x04))\n      shr(0xe0, calldataload(0x00))\n      dup1\n      0x0f3d0204\n      eq\n      tag_3\n      jumpi\n      jump(tag_2)\n    tag_1:\n      jumpi(tag_2, calldatasize)\n        /* \"lecture/lec36_call.sol\":423:459  JustReceive(\"JustReceive is called\") */\n      0xea76936da7e733de51185273d52362d5abc78a41b970e52e5a32d35a187566c2\n      mload(0x40)\n      dup1\n      dup1\n      0x20\n      add\n      dup3\n      dup2\n      sub\n      dup3\n      mstore\n      0x15\n      dup2\n      mstore\n      0x20\n      add\n      dup1\n      0x4a757374526563656976652069732063616c6c65640000000000000000000000\n      dup2\n      mstore\n      pop\n      0x20\n      add\n      swap2\n      pop\n      pop\n      mload(0x40)\n      dup1\n      swap2\n      sub\n      swap1\n      log1\n        /* \"lecture/lec36_call.sol\":75:471  contract add{\r... */\n      stop\n    tag_2:\n      callvalue\n      dup1\n      iszero\n      tag_6\n      jumpi\n      0x00\n      dup1\n      revert\n    tag_6:\n      pop\n        /* \"lecture/lec36_call.sol\":328:366  JustFallback(\"JustFallback is called\") */\n      0xa34784e3343c15d43f7dcaa7f7575208ff57743c4f087aade7e1f63d9f87b35c\n      mload(0x40)\n      dup1\n      dup1\n      0x20\n      add\n      dup3\n      dup2\n      sub\n      dup3\n      mstore\n      0x16\n      dup2\n      mstore\n      0x20\n      add\n      dup1\n      0x4a75737446616c6c6261636b2069732063616c6c656400000000000000000000\n      dup2\n      mstore\n      pop\n      0x20\n      add\n      swap2\n      pop\n      pop\n      mload(0x40)\n      dup1\n      swap2\n      sub\n      swap1\n      log1\n        /* \"lecture/lec36_call.sol\":75:471  contract add{\r... */\n      stop\n        /* \"lecture/lec36_call.sol\":171:286  function addNumber(uint256 _num1,uint256 _num2) public pure returns(uint256){\r... */\n    tag_3:\n      callvalue\n      dup1\n      iszero\n      tag_9\n      jumpi\n      0x00\n      dup1\n      revert\n    tag_9:\n      pop\n      tag_10\n      0x04\n      dup1\n      calldatasize\n      sub\n      0x40\n      dup2\n      lt\n      iszero\n      tag_11\n      jumpi\n      0x00\n      dup1\n      revert\n    tag_11:\n      dup2\n      add\n      swap1\n      dup1\n      dup1\n      calldataload\n      swap1\n      0x20\n      add\n      swap1\n      swap3\n      swap2\n      swap1\n      dup1\n      calldataload\n      swap1\n      0x20\n      add\n      swap1\n      swap3\n      swap2\n      swap1\n      pop\n      pop\n      pop\n      tag_12\n      jump\t// in\n    tag_10:\n      mload(0x40)\n      dup1\n      dup3\n      dup2\n      mstore\n      0x20\n      add\n      swap2\n      pop\n      pop\n      mload(0x40)\n      dup1\n      swap2\n      sub\n      swap1\n      return\n    tag_12:\n        /* \"lecture/lec36_call.sol\":239:246  uint256 */\n      0x00\n        /* \"lecture/lec36_call.sol\":273:278  _num2 */\n      dup2\n        /* \"lecture/lec36_call.sol\":265:270  _num1 */\n      dup4\n        /* \"lecture/lec36_call.sol\":265:278  _num1 + _num2 */\n      add\n        /* \"lecture/lec36_call.sol\":258:278  return _num1 + _num2 */\n      swap1\n      pop\n        /* \"lecture/lec36_call.sol\":171:286  function addNumber(uint256 _num1,uint256 _num2) public pure returns(uint256){\r... */\n      swap3\n      swap2\n      pop\n      pop\n      jump\t// out\n\n    auxdata: 0xa2646970667358221220d4d0d7f5bce0e7fc649589a49390151a69f13ac52d41ce8b00c625a86f98e18e64736f6c63430007010033\n}\n",
				"bytecode": {
					"linkReferences": {},
					"object": "608060405234801561001057600080fd5b506101a4806100206000396000f3fe6080604052600436106100225760003560e01c80630f3d02041461010857610091565b36610091577fea76936da7e733de51185273d52362d5abc78a41b970e52e5a32d35a187566c26040518080602001828103825260158152602001807f4a757374526563656976652069732063616c6c6564000000000000000000000081525060200191505060405180910390a1005b34801561009d57600080fd5b507fa34784e3343c15d43f7dcaa7f7575208ff57743c4f087aade7e1f63d9f87b35c6040518080602001828103825260168152602001807f4a75737446616c6c6261636b2069732063616c6c65640000000000000000000081525060200191505060405180910390a1005b34801561011457600080fd5b5061014b6004803603604081101561012b57600080fd5b810190808035906020019092919080359060200190929190505050610161565b6040518082815260200191505060405180910390f35b600081830190509291505056fea2646970667358221220d4d0d7f5bce0e7fc649589a49390151a69f13ac52d41ce8b00c625a86f98e18e64736f6c63430007010033",
					"opcodes": "PUSH1 0x80 PUSH1 0x40 MSTORE CALLVALUE DUP1 ISZERO PUSH2 0x10 JUMPI PUSH1 0x0 DUP1 REVERT JUMPDEST POP PUSH2 0x1A4 DUP1 PUSH2 0x20 PUSH1 0x0 CODECOPY PUSH1 0x0 RETURN INVALID PUSH1 0x80 PUSH1 0x40 MSTORE PUSH1 0x4 CALLDATASIZE LT PUSH2 0x22 JUMPI PUSH1 0x0 CALLDATALOAD PUSH1 0xE0 SHR DUP1 PUSH4 0xF3D0204 EQ PUSH2 0x108 JUMPI PUSH2 0x91 JUMP JUMPDEST CALLDATASIZE PUSH2 0x91 JUMPI PUSH32 0xEA76936DA7E733DE51185273D52362D5ABC78A41B970E52E5A32D35A187566C2 PUSH1 0x40 MLOAD DUP1 DUP1 PUSH1 0x20 ADD DUP3 DUP2 SUB DUP3 MSTORE PUSH1 0x15 DUP2 MSTORE PUSH1 0x20 ADD DUP1 PUSH32 0x4A757374526563656976652069732063616C6C65640000000000000000000000 DUP2 MSTORE POP PUSH1 0x20 ADD SWAP2 POP POP PUSH1 0x40 MLOAD DUP1 SWAP2 SUB SWAP1 LOG1 STOP JUMPDEST CALLVALUE DUP1 ISZERO PUSH2 0x9D JUMPI PUSH1 0x0 DUP1 REVERT JUMPDEST POP PUSH32 0xA34784E3343C15D43F7DCAA7F7575208FF57743C4F087AADE7E1F63D9F87B35C PUSH1 0x40 MLOAD DUP1 DUP1 PUSH1 0x20 ADD DUP3 DUP2 SUB DUP3 MSTORE PUSH1 0x16 DUP2 MSTORE PUSH1 0x20 ADD DUP1 PUSH32 0x4A75737446616C6C6261636B2069732063616C6C656400000000000000000000 DUP2 MSTORE POP PUSH1 0x20 ADD SWAP2 POP POP PUSH1 0x40 MLOAD DUP1 SWAP2 SUB SWAP1 LOG1 STOP JUMPDEST CALLVALUE DUP1 ISZERO PUSH2 0x114 JUMPI PUSH1 0x0 DUP1 REVERT JUMPDEST POP PUSH2 0x14B PUSH1 0x4 DUP1 CALLDATASIZE SUB PUSH1 0x40 DUP2 LT ISZERO PUSH2 0x12B JUMPI PUSH1 0x0 DUP1 REVERT JUMPDEST DUP2 ADD SWAP1 DUP1 DUP1 CALLDATALOAD SWAP1 PUSH1 0x20 ADD SWAP1 SWAP3 SWAP2 SWAP1 DUP1 CALLDATALOAD SWAP1 PUSH1 0x20 ADD SWAP1 SWAP3 SWAP2 SWAP1 POP POP POP PUSH2 0x161 JUMP JUMPDEST PUSH1 0x40 MLOAD DUP1 DUP3 DUP2 MSTORE PUSH1 0x20 ADD SWAP2 POP POP PUSH1 0x40 MLOAD DUP1 SWAP2 SUB SWAP1 RETURN JUMPDEST PUSH1 0x0 DUP2 DUP4 ADD SWAP1 POP SWAP3 SWAP2 POP POP JUMP INVALID LOG2 PUSH5 0x6970667358 0x22 SLT KECCAK256 0xD4 0xD0 0xD7 CREATE2 0xBC 0xE0 0xE7 0xFC PUSH5 0x9589A49390 ISZERO BYTE PUSH10 0xF13AC52D41CE8B00C625 0xA8 PUSH16 0x98E18E64736F6C634300070100330000 "
				},
				"gasEstimates": {
					"creation": {
						"codeDepositCost": "84000",
						"executionCost": "135",
						"totalCost": "84135"
					},
					"external": {
						"": "1735",
						"addNumber(uint256,uint256)": "313"
					}
				},
				"methodIdentifiers": {
					"addNumber(uint256,uint256)": "0f3d0204"
				}
			},
			"storageLayout": {
				"storage": [],
				"types": null
			},
			"userdoc": {
				"kind": "user",
				"methods": {},
				"version": 1
			}
		}
	}
}