{
	"lecture/lect34_payable2.sol": {
		"MobileBanking": {
			"abi": [
				{
					"inputs": [],
					"stateMutability": "payable",
					"type": "constructor"
				},
				{
					"anonymous": false,
					"inputs": [
						{
							"indexed": false,
							"internalType": "address",
							"name": "_msgSender",
							"type": "address"
						},
						{
							"indexed": false,
							"internalType": "address",
							"name": "_to",
							"type": "address"
						},
						{
							"indexed": false,
							"internalType": "uint256",
							"name": "_value",
							"type": "uint256"
						}
					],
					"name": "CurrentValueOfSomeone",
					"type": "event"
				},
				{
					"anonymous": false,
					"inputs": [
						{
							"indexed": false,
							"internalType": "address",
							"name": "_msgSender",
							"type": "address"
						},
						{
							"indexed": false,
							"internalType": "uint256",
							"name": "_value",
							"type": "uint256"
						}
					],
					"name": "MyCurrentValue",
					"type": "event"
				},
				{
					"anonymous": false,
					"inputs": [
						{
							"indexed": false,
							"internalType": "address",
							"name": "_msgSender",
							"type": "address"
						},
						{
							"indexed": false,
							"internalType": "uint256",
							"name": "_currentValue",
							"type": "uint256"
						}
					],
					"name": "SendInfo",
					"type": "event"
				},
				{
					"inputs": [],
					"name": "getBalance",
					"outputs": [
						{
							"internalType": "uint256",
							"name": "",
							"type": "uint256"
						}
					],
					"stateMutability": "view",
					"type": "function"
				},
				{
					"inputs": [
						{
							"internalType": "address payable",
							"name": "_to",
							"type": "address"
						}
					],
					"name": "sendEther",
					"outputs": [],
					"stateMutability": "payable",
					"type": "function"
				}
			],
			"devdoc": {
				"kind": "dev",
				"methods": {},
				"version": 1
			},
			"evm": {
				"assembly": "    /* \"lecture/lect34_payable2.sol\":75:893  contract MobileBanking{\r... */\n  mstore(0x40, 0x80)\n    /* \"lecture/lect34_payable2.sol\":252:262  msg.sender */\n  caller\n    /* \"lecture/lect34_payable2.sol\":244:249  owner */\n  0x00\n  dup1\n    /* \"lecture/lect34_payable2.sol\":244:262  owner = msg.sender */\n  0x0100\n  exp\n  dup2\n  sload\n  dup2\n  0xffffffffffffffffffffffffffffffffffffffff\n  mul\n  not\n  and\n  swap1\n  dup4\n  0xffffffffffffffffffffffffffffffffffffffff\n  and\n  mul\n  or\n  swap1\n  sstore\n  pop\n    /* \"lecture/lect34_payable2.sol\":75:893  contract MobileBanking{\r... */\n  dataSize(sub_0)\n  dup1\n  dataOffset(sub_0)\n  0x00\n  codecopy\n  0x00\n  return\nstop\n\nsub_0: assembly {\n        /* \"lecture/lect34_payable2.sol\":75:893  contract MobileBanking{\r... */\n      mstore(0x40, 0x80)\n      jumpi(tag_1, lt(calldatasize, 0x04))\n      shr(0xe0, calldataload(0x00))\n      dup1\n      0x12065fe0\n      eq\n      tag_2\n      jumpi\n      dup1\n      0x48c981e2\n      eq\n      tag_3\n      jumpi\n    tag_1:\n      0x00\n      dup1\n      revert\n        /* \"lecture/lect34_payable2.sol\":796:890  function getBalance() public view returns(uint){\r... */\n    tag_2:\n      callvalue\n      dup1\n      iszero\n      tag_4\n      jumpi\n      0x00\n      dup1\n      revert\n    tag_4:\n      pop\n      tag_5\n      tag_6\n      jump\t// in\n    tag_5:\n      mload(0x40)\n      tag_7\n      swap2\n      swap1\n      tag_8\n      jump\t// in\n    tag_7:\n      mload(0x40)\n      dup1\n      swap2\n      sub\n      swap1\n      return\n        /* \"lecture/lect34_payable2.sol\":500:790  function sendEther(address payable _to) public payable {\r... */\n    tag_3:\n      tag_9\n      0x04\n      dup1\n      calldatasize\n      sub\n      dup2\n      add\n      swap1\n      tag_10\n      swap2\n      swap1\n      tag_11\n      jump\t// in\n    tag_10:\n      tag_12\n      jump\t// in\n    tag_9:\n      stop\n        /* \"lecture/lect34_payable2.sol\":796:890  function getBalance() public view returns(uint){\r... */\n    tag_6:\n        /* \"lecture/lect34_payable2.sol\":838:842  uint */\n      0x00\n        /* \"lecture/lect34_payable2.sol\":861:882  address(this).balance */\n      selfbalance\n        /* \"lecture/lect34_payable2.sol\":854:882  return address(this).balance */\n      swap1\n      pop\n        /* \"lecture/lect34_payable2.sol\":796:890  function getBalance() public view returns(uint){\r... */\n      swap1\n      jump\t// out\n        /* \"lecture/lect34_payable2.sol\":500:790  function sendEther(address payable _to) public payable {\r... */\n    tag_12:\n        /* \"lecture/lect34_payable2.sol\":588:593  owner */\n      0x00\n      dup1\n      sload\n      swap1\n      0x0100\n      exp\n      swap1\n      div\n      0xffffffffffffffffffffffffffffffffffffffff\n      and\n        /* \"lecture/lect34_payable2.sol\":574:593  msg.sender == owner */\n      0xffffffffffffffffffffffffffffffffffffffff\n      and\n        /* \"lecture/lect34_payable2.sol\":574:584  msg.sender */\n      caller\n        /* \"lecture/lect34_payable2.sol\":574:593  msg.sender == owner */\n      0xffffffffffffffffffffffffffffffffffffffff\n      and\n      eq\n        /* \"lecture/lect34_payable2.sol\":566:610  require(msg.sender == owner, \"Only Owner! \") */\n      tag_15\n      jumpi\n      mload(0x40)\n      0x08c379a000000000000000000000000000000000000000000000000000000000\n      dup2\n      mstore\n      0x04\n      add\n      tag_16\n      swap1\n      tag_17\n      jump\t// in\n    tag_16:\n      mload(0x40)\n      dup1\n      swap2\n      sub\n      swap1\n      revert\n    tag_15:\n        /* \"lecture/lect34_payable2.sol\":651:660  msg.value */\n      callvalue\n        /* \"lecture/lect34_payable2.sol\":629:639  msg.sender */\n      caller\n        /* \"lecture/lect34_payable2.sol\":629:647  msg.sender.balance */\n      0xffffffffffffffffffffffffffffffffffffffff\n      and\n      balance\n        /* \"lecture/lect34_payable2.sol\":629:660  msg.sender.balance >= msg.value */\n      lt\n      iszero\n        /* \"lecture/lect34_payable2.sol\":621:691  require(msg.sender.balance >= msg.value, \"Your balance is not enough\") */\n      tag_18\n      jumpi\n      mload(0x40)\n      0x08c379a000000000000000000000000000000000000000000000000000000000\n      dup2\n      mstore\n      0x04\n      add\n      tag_19\n      swap1\n      tag_20\n      jump\t// in\n    tag_19:\n      mload(0x40)\n      dup1\n      swap2\n      sub\n      swap1\n      revert\n    tag_18:\n        /* \"lecture/lect34_payable2.sol\":702:705  _to */\n      dup1\n        /* \"lecture/lect34_payable2.sol\":702:714  _to.transfer */\n      0xffffffffffffffffffffffffffffffffffffffff\n      and\n        /* \"lecture/lect34_payable2.sol\":702:725  _to.transfer(msg.value) */\n      0x08fc\n        /* \"lecture/lect34_payable2.sol\":715:724  msg.value */\n      callvalue\n        /* \"lecture/lect34_payable2.sol\":702:725  _to.transfer(msg.value) */\n      swap1\n      dup2\n      iszero\n      mul\n      swap1\n      mload(0x40)\n      0x00\n      mload(0x40)\n      dup1\n      dup4\n      sub\n      dup2\n      dup6\n      dup9\n      dup9\n      call\n      swap4\n      pop\n      pop\n      pop\n      pop\n      iszero\n      dup1\n      iszero\n      tag_22\n      jumpi\n      returndatasize\n      0x00\n      dup1\n      returndatacopy\n      revert(0x00, returndatasize)\n    tag_22:\n      pop\n        /* \"lecture/lect34_payable2.sol\":741:782  SendInfo(msg.sender,(msg.sender).balance) */\n      0xef3d45e3976629248ff5a27c6e07e8c80013b2b1f46611f16ebf46c6bf09be29\n        /* \"lecture/lect34_payable2.sol\":750:760  msg.sender */\n      caller\n        /* \"lecture/lect34_payable2.sol\":762:772  msg.sender */\n      caller\n        /* \"lecture/lect34_payable2.sol\":761:781  (msg.sender).balance */\n      0xffffffffffffffffffffffffffffffffffffffff\n      and\n      balance\n        /* \"lecture/lect34_payable2.sol\":741:782  SendInfo(msg.sender,(msg.sender).balance) */\n      mload(0x40)\n      tag_23\n      swap3\n      swap2\n      swap1\n      tag_24\n      jump\t// in\n    tag_23:\n      mload(0x40)\n      dup1\n      swap2\n      sub\n      swap1\n      log1\n        /* \"lecture/lect34_payable2.sol\":500:790  function sendEther(address payable _to) public payable {\r... */\n      pop\n      jump\t// out\n        /* \"#utility.yul\":7:162   */\n    tag_26:\n        /* \"#utility.yul\":61:66   */\n      0x00\n        /* \"#utility.yul\":99:105   */\n      dup2\n        /* \"#utility.yul\":86:106   */\n      calldataload\n        /* \"#utility.yul\":77:106   */\n      swap1\n      pop\n        /* \"#utility.yul\":115:156   */\n      tag_28\n        /* \"#utility.yul\":150:155   */\n      dup2\n        /* \"#utility.yul\":115:156   */\n      tag_29\n      jump\t// in\n    tag_28:\n        /* \"#utility.yul\":7:162   */\n      swap3\n      swap2\n      pop\n      pop\n      jump\t// out\n        /* \"#utility.yul\":168:513   */\n    tag_11:\n        /* \"#utility.yul\":235:241   */\n      0x00\n        /* \"#utility.yul\":284:286   */\n      0x20\n        /* \"#utility.yul\":272:281   */\n      dup3\n        /* \"#utility.yul\":263:270   */\n      dup5\n        /* \"#utility.yul\":259:282   */\n      sub\n        /* \"#utility.yul\":255:287   */\n      slt\n        /* \"#utility.yul\":252:371   */\n      iszero\n      tag_31\n      jumpi\n        /* \"#utility.yul\":290:369   */\n      tag_32\n      tag_33\n      jump\t// in\n    tag_32:\n        /* \"#utility.yul\":252:371   */\n    tag_31:\n        /* \"#utility.yul\":410:411   */\n      0x00\n        /* \"#utility.yul\":435:496   */\n      tag_34\n        /* \"#utility.yul\":488:495   */\n      dup5\n        /* \"#utility.yul\":479:485   */\n      dup3\n        /* \"#utility.yul\":468:477   */\n      dup6\n        /* \"#utility.yul\":464:486   */\n      add\n        /* \"#utility.yul\":435:496   */\n      tag_26\n      jump\t// in\n    tag_34:\n        /* \"#utility.yul\":425:496   */\n      swap2\n      pop\n        /* \"#utility.yul\":381:506   */\n      pop\n        /* \"#utility.yul\":168:513   */\n      swap3\n      swap2\n      pop\n      pop\n      jump\t// out\n        /* \"#utility.yul\":519:637   */\n    tag_35:\n        /* \"#utility.yul\":606:630   */\n      tag_37\n        /* \"#utility.yul\":624:629   */\n      dup2\n        /* \"#utility.yul\":606:630   */\n      tag_38\n      jump\t// in\n    tag_37:\n        /* \"#utility.yul\":601:604   */\n      dup3\n        /* \"#utility.yul\":594:631   */\n      mstore\n        /* \"#utility.yul\":519:637   */\n      pop\n      pop\n      jump\t// out\n        /* \"#utility.yul\":643:1009   */\n    tag_39:\n        /* \"#utility.yul\":785:788   */\n      0x00\n        /* \"#utility.yul\":806:873   */\n      tag_41\n        /* \"#utility.yul\":870:872   */\n      0x1a\n        /* \"#utility.yul\":865:868   */\n      dup4\n        /* \"#utility.yul\":806:873   */\n      tag_42\n      jump\t// in\n    tag_41:\n        /* \"#utility.yul\":799:873   */\n      swap2\n      pop\n        /* \"#utility.yul\":882:975   */\n      tag_43\n        /* \"#utility.yul\":971:974   */\n      dup3\n        /* \"#utility.yul\":882:975   */\n      tag_44\n      jump\t// in\n    tag_43:\n        /* \"#utility.yul\":1000:1002   */\n      0x20\n        /* \"#utility.yul\":995:998   */\n      dup3\n        /* \"#utility.yul\":991:1003   */\n      add\n        /* \"#utility.yul\":984:1003   */\n      swap1\n      pop\n        /* \"#utility.yul\":643:1009   */\n      swap2\n      swap1\n      pop\n      jump\t// out\n        /* \"#utility.yul\":1015:1381   */\n    tag_45:\n        /* \"#utility.yul\":1157:1160   */\n      0x00\n        /* \"#utility.yul\":1178:1245   */\n      tag_47\n        /* \"#utility.yul\":1242:1244   */\n      0x0c\n        /* \"#utility.yul\":1237:1240   */\n      dup4\n        /* \"#utility.yul\":1178:1245   */\n      tag_42\n      jump\t// in\n    tag_47:\n        /* \"#utility.yul\":1171:1245   */\n      swap2\n      pop\n        /* \"#utility.yul\":1254:1347   */\n      tag_48\n        /* \"#utility.yul\":1343:1346   */\n      dup3\n        /* \"#utility.yul\":1254:1347   */\n      tag_49\n      jump\t// in\n    tag_48:\n        /* \"#utility.yul\":1372:1374   */\n      0x20\n        /* \"#utility.yul\":1367:1370   */\n      dup3\n        /* \"#utility.yul\":1363:1375   */\n      add\n        /* \"#utility.yul\":1356:1375   */\n      swap1\n      pop\n        /* \"#utility.yul\":1015:1381   */\n      swap2\n      swap1\n      pop\n      jump\t// out\n        /* \"#utility.yul\":1387:1505   */\n    tag_50:\n        /* \"#utility.yul\":1474:1498   */\n      tag_52\n        /* \"#utility.yul\":1492:1497   */\n      dup2\n        /* \"#utility.yul\":1474:1498   */\n      tag_53\n      jump\t// in\n    tag_52:\n        /* \"#utility.yul\":1469:1472   */\n      dup3\n        /* \"#utility.yul\":1462:1499   */\n      mstore\n        /* \"#utility.yul\":1387:1505   */\n      pop\n      pop\n      jump\t// out\n        /* \"#utility.yul\":1511:1843   */\n    tag_24:\n        /* \"#utility.yul\":1632:1636   */\n      0x00\n        /* \"#utility.yul\":1670:1672   */\n      0x40\n        /* \"#utility.yul\":1659:1668   */\n      dup3\n        /* \"#utility.yul\":1655:1673   */\n      add\n        /* \"#utility.yul\":1647:1673   */\n      swap1\n      pop\n        /* \"#utility.yul\":1683:1754   */\n      tag_55\n        /* \"#utility.yul\":1751:1752   */\n      0x00\n        /* \"#utility.yul\":1740:1749   */\n      dup4\n        /* \"#utility.yul\":1736:1753   */\n      add\n        /* \"#utility.yul\":1727:1733   */\n      dup6\n        /* \"#utility.yul\":1683:1754   */\n      tag_35\n      jump\t// in\n    tag_55:\n        /* \"#utility.yul\":1764:1836   */\n      tag_56\n        /* \"#utility.yul\":1832:1834   */\n      0x20\n        /* \"#utility.yul\":1821:1830   */\n      dup4\n        /* \"#utility.yul\":1817:1835   */\n      add\n        /* \"#utility.yul\":1808:1814   */\n      dup5\n        /* \"#utility.yul\":1764:1836   */\n      tag_50\n      jump\t// in\n    tag_56:\n        /* \"#utility.yul\":1511:1843   */\n      swap4\n      swap3\n      pop\n      pop\n      pop\n      jump\t// out\n        /* \"#utility.yul\":1849:2268   */\n    tag_20:\n        /* \"#utility.yul\":2015:2019   */\n      0x00\n        /* \"#utility.yul\":2053:2055   */\n      0x20\n        /* \"#utility.yul\":2042:2051   */\n      dup3\n        /* \"#utility.yul\":2038:2056   */\n      add\n        /* \"#utility.yul\":2030:2056   */\n      swap1\n      pop\n        /* \"#utility.yul\":2102:2111   */\n      dup2\n        /* \"#utility.yul\":2096:2100   */\n      dup2\n        /* \"#utility.yul\":2092:2112   */\n      sub\n        /* \"#utility.yul\":2088:2089   */\n      0x00\n        /* \"#utility.yul\":2077:2086   */\n      dup4\n        /* \"#utility.yul\":2073:2090   */\n      add\n        /* \"#utility.yul\":2066:2113   */\n      mstore\n        /* \"#utility.yul\":2130:2261   */\n      tag_58\n        /* \"#utility.yul\":2256:2260   */\n      dup2\n        /* \"#utility.yul\":2130:2261   */\n      tag_39\n      jump\t// in\n    tag_58:\n        /* \"#utility.yul\":2122:2261   */\n      swap1\n      pop\n        /* \"#utility.yul\":1849:2268   */\n      swap2\n      swap1\n      pop\n      jump\t// out\n        /* \"#utility.yul\":2274:2693   */\n    tag_17:\n        /* \"#utility.yul\":2440:2444   */\n      0x00\n        /* \"#utility.yul\":2478:2480   */\n      0x20\n        /* \"#utility.yul\":2467:2476   */\n      dup3\n        /* \"#utility.yul\":2463:2481   */\n      add\n        /* \"#utility.yul\":2455:2481   */\n      swap1\n      pop\n        /* \"#utility.yul\":2527:2536   */\n      dup2\n        /* \"#utility.yul\":2521:2525   */\n      dup2\n        /* \"#utility.yul\":2517:2537   */\n      sub\n        /* \"#utility.yul\":2513:2514   */\n      0x00\n        /* \"#utility.yul\":2502:2511   */\n      dup4\n        /* \"#utility.yul\":2498:2515   */\n      add\n        /* \"#utility.yul\":2491:2538   */\n      mstore\n        /* \"#utility.yul\":2555:2686   */\n      tag_60\n        /* \"#utility.yul\":2681:2685   */\n      dup2\n        /* \"#utility.yul\":2555:2686   */\n      tag_45\n      jump\t// in\n    tag_60:\n        /* \"#utility.yul\":2547:2686   */\n      swap1\n      pop\n        /* \"#utility.yul\":2274:2693   */\n      swap2\n      swap1\n      pop\n      jump\t// out\n        /* \"#utility.yul\":2699:2921   */\n    tag_8:\n        /* \"#utility.yul\":2792:2796   */\n      0x00\n        /* \"#utility.yul\":2830:2832   */\n      0x20\n        /* \"#utility.yul\":2819:2828   */\n      dup3\n        /* \"#utility.yul\":2815:2833   */\n      add\n        /* \"#utility.yul\":2807:2833   */\n      swap1\n      pop\n        /* \"#utility.yul\":2843:2914   */\n      tag_62\n        /* \"#utility.yul\":2911:2912   */\n      0x00\n        /* \"#utility.yul\":2900:2909   */\n      dup4\n        /* \"#utility.yul\":2896:2913   */\n      add\n        /* \"#utility.yul\":2887:2893   */\n      dup5\n        /* \"#utility.yul\":2843:2914   */\n      tag_50\n      jump\t// in\n    tag_62:\n        /* \"#utility.yul\":2699:2921   */\n      swap3\n      swap2\n      pop\n      pop\n      jump\t// out\n        /* \"#utility.yul\":3008:3177   */\n    tag_42:\n        /* \"#utility.yul\":3092:3103   */\n      0x00\n        /* \"#utility.yul\":3126:3132   */\n      dup3\n        /* \"#utility.yul\":3121:3124   */\n      dup3\n        /* \"#utility.yul\":3114:3133   */\n      mstore\n        /* \"#utility.yul\":3166:3170   */\n      0x20\n        /* \"#utility.yul\":3161:3164   */\n      dup3\n        /* \"#utility.yul\":3157:3171   */\n      add\n        /* \"#utility.yul\":3142:3171   */\n      swap1\n      pop\n        /* \"#utility.yul\":3008:3177   */\n      swap3\n      swap2\n      pop\n      pop\n      jump\t// out\n        /* \"#utility.yul\":3183:3279   */\n    tag_38:\n        /* \"#utility.yul\":3220:3227   */\n      0x00\n        /* \"#utility.yul\":3249:3273   */\n      tag_67\n        /* \"#utility.yul\":3267:3272   */\n      dup3\n        /* \"#utility.yul\":3249:3273   */\n      tag_68\n      jump\t// in\n    tag_67:\n        /* \"#utility.yul\":3238:3273   */\n      swap1\n      pop\n        /* \"#utility.yul\":3183:3279   */\n      swap2\n      swap1\n      pop\n      jump\t// out\n        /* \"#utility.yul\":3285:3389   */\n    tag_69:\n        /* \"#utility.yul\":3330:3337   */\n      0x00\n        /* \"#utility.yul\":3359:3383   */\n      tag_71\n        /* \"#utility.yul\":3377:3382   */\n      dup3\n        /* \"#utility.yul\":3359:3383   */\n      tag_68\n      jump\t// in\n    tag_71:\n        /* \"#utility.yul\":3348:3383   */\n      swap1\n      pop\n        /* \"#utility.yul\":3285:3389   */\n      swap2\n      swap1\n      pop\n      jump\t// out\n        /* \"#utility.yul\":3395:3521   */\n    tag_68:\n        /* \"#utility.yul\":3432:3439   */\n      0x00\n        /* \"#utility.yul\":3472:3514   */\n      0xffffffffffffffffffffffffffffffffffffffff\n        /* \"#utility.yul\":3465:3470   */\n      dup3\n        /* \"#utility.yul\":3461:3515   */\n      and\n        /* \"#utility.yul\":3450:3515   */\n      swap1\n      pop\n        /* \"#utility.yul\":3395:3521   */\n      swap2\n      swap1\n      pop\n      jump\t// out\n        /* \"#utility.yul\":3527:3604   */\n    tag_53:\n        /* \"#utility.yul\":3564:3571   */\n      0x00\n        /* \"#utility.yul\":3593:3598   */\n      dup2\n        /* \"#utility.yul\":3582:3598   */\n      swap1\n      pop\n        /* \"#utility.yul\":3527:3604   */\n      swap2\n      swap1\n      pop\n      jump\t// out\n        /* \"#utility.yul\":3733:3850   */\n    tag_33:\n        /* \"#utility.yul\":3842:3843   */\n      0x00\n        /* \"#utility.yul\":3839:3840   */\n      dup1\n        /* \"#utility.yul\":3832:3844   */\n      revert\n        /* \"#utility.yul\":3856:4032   */\n    tag_44:\n        /* \"#utility.yul\":3996:4024   */\n      0x596f75722062616c616e6365206973206e6f7420656e6f756768000000000000\n        /* \"#utility.yul\":3992:3993   */\n      0x00\n        /* \"#utility.yul\":3984:3990   */\n      dup3\n        /* \"#utility.yul\":3980:3994   */\n      add\n        /* \"#utility.yul\":3973:4025   */\n      mstore\n        /* \"#utility.yul\":3856:4032   */\n      pop\n      jump\t// out\n        /* \"#utility.yul\":4038:4200   */\n    tag_49:\n        /* \"#utility.yul\":4178:4192   */\n      0x4f6e6c79204f776e657221200000000000000000000000000000000000000000\n        /* \"#utility.yul\":4174:4175   */\n      0x00\n        /* \"#utility.yul\":4166:4172   */\n      dup3\n        /* \"#utility.yul\":4162:4176   */\n      add\n        /* \"#utility.yul\":4155:4193   */\n      mstore\n        /* \"#utility.yul\":4038:4200   */\n      pop\n      jump\t// out\n        /* \"#utility.yul\":4206:4344   */\n    tag_29:\n        /* \"#utility.yul\":4287:4319   */\n      tag_80\n        /* \"#utility.yul\":4313:4318   */\n      dup2\n        /* \"#utility.yul\":4287:4319   */\n      tag_69\n      jump\t// in\n    tag_80:\n        /* \"#utility.yul\":4280:4285   */\n      dup2\n        /* \"#utility.yul\":4277:4320   */\n      eq\n        /* \"#utility.yul\":4267:4338   */\n      tag_81\n      jumpi\n        /* \"#utility.yul\":4334:4335   */\n      0x00\n        /* \"#utility.yul\":4331:4332   */\n      dup1\n        /* \"#utility.yul\":4324:4336   */\n      revert\n        /* \"#utility.yul\":4267:4338   */\n    tag_81:\n        /* \"#utility.yul\":4206:4344   */\n      pop\n      jump\t// out\n\n    auxdata: 0xa26469706673582212206fba02f36ced9d8b446df0cb386f98e986e00e209eb5fe3f4f9d75263b3cfb7964736f6c63430008070033\n}\n",
				"bytecode": {
					"linkReferences": {},
					"object": "6080604052336000806101000a81548173ffffffffffffffffffffffffffffffffffffffff021916908373ffffffffffffffffffffffffffffffffffffffff16021790555061042c806100536000396000f3fe6080604052600436106100295760003560e01c806312065fe01461002e57806348c981e214610059575b600080fd5b34801561003a57600080fd5b50610043610075565b604051610050919061030e565b60405180910390f35b610073600480360381019061006e9190610214565b61007d565b005b600047905090565b60008054906101000a900473ffffffffffffffffffffffffffffffffffffffff1673ffffffffffffffffffffffffffffffffffffffff163373ffffffffffffffffffffffffffffffffffffffff161461010b576040517f08c379a0000000000000000000000000000000000000000000000000000000008152600401610102906102ee565b60405180910390fd5b343373ffffffffffffffffffffffffffffffffffffffff16311015610165576040517f08c379a000000000000000000000000000000000000000000000000000000000815260040161015c906102ce565b60405180910390fd5b8073ffffffffffffffffffffffffffffffffffffffff166108fc349081150290604051600060405180830381858888f193505050501580156101ab573d6000803e3d6000fd5b507fef3d45e3976629248ff5a27c6e07e8c80013b2b1f46611f16ebf46c6bf09be29333373ffffffffffffffffffffffffffffffffffffffff16316040516101f49291906102a5565b60405180910390a150565b60008135905061020e816103df565b92915050565b60006020828403121561022a57610229610388565b5b6000610238848285016101ff565b91505092915050565b61024a8161033a565b82525050565b600061025d601a83610329565b91506102688261038d565b602082019050919050565b6000610280600c83610329565b915061028b826103b6565b602082019050919050565b61029f8161037e565b82525050565b60006040820190506102ba6000830185610241565b6102c76020830184610296565b9392505050565b600060208201905081810360008301526102e781610250565b9050919050565b6000602082019050818103600083015261030781610273565b9050919050565b60006020820190506103236000830184610296565b92915050565b600082825260208201905092915050565b60006103458261035e565b9050919050565b60006103578261035e565b9050919050565b600073ffffffffffffffffffffffffffffffffffffffff82169050919050565b6000819050919050565b600080fd5b7f596f75722062616c616e6365206973206e6f7420656e6f756768000000000000600082015250565b7f4f6e6c79204f776e657221200000000000000000000000000000000000000000600082015250565b6103e88161034c565b81146103f357600080fd5b5056fea26469706673582212206fba02f36ced9d8b446df0cb386f98e986e00e209eb5fe3f4f9d75263b3cfb7964736f6c63430008070033",
					"opcodes": "PUSH1 0x80 PUSH1 0x40 MSTORE CALLER PUSH1 0x0 DUP1 PUSH2 0x100 EXP DUP2 SLOAD DUP2 PUSH20 0xFFFFFFFFFFFFFFFFFFFFFFFFFFFFFFFFFFFFFFFF MUL NOT AND SWAP1 DUP4 PUSH20 0xFFFFFFFFFFFFFFFFFFFFFFFFFFFFFFFFFFFFFFFF AND MUL OR SWAP1 SSTORE POP PUSH2 0x42C DUP1 PUSH2 0x53 PUSH1 0x0 CODECOPY PUSH1 0x0 RETURN INVALID PUSH1 0x80 PUSH1 0x40 MSTORE PUSH1 0x4 CALLDATASIZE LT PUSH2 0x29 JUMPI PUSH1 0x0 CALLDATALOAD PUSH1 0xE0 SHR DUP1 PUSH4 0x12065FE0 EQ PUSH2 0x2E JUMPI DUP1 PUSH4 0x48C981E2 EQ PUSH2 0x59 JUMPI JUMPDEST PUSH1 0x0 DUP1 REVERT JUMPDEST CALLVALUE DUP1 ISZERO PUSH2 0x3A JUMPI PUSH1 0x0 DUP1 REVERT JUMPDEST POP PUSH2 0x43 PUSH2 0x75 JUMP JUMPDEST PUSH1 0x40 MLOAD PUSH2 0x50 SWAP2 SWAP1 PUSH2 0x30E JUMP JUMPDEST PUSH1 0x40 MLOAD DUP1 SWAP2 SUB SWAP1 RETURN JUMPDEST PUSH2 0x73 PUSH1 0x4 DUP1 CALLDATASIZE SUB DUP2 ADD SWAP1 PUSH2 0x6E SWAP2 SWAP1 PUSH2 0x214 JUMP JUMPDEST PUSH2 0x7D JUMP JUMPDEST STOP JUMPDEST PUSH1 0x0 SELFBALANCE SWAP1 POP SWAP1 JUMP JUMPDEST PUSH1 0x0 DUP1 SLOAD SWAP1 PUSH2 0x100 EXP SWAP1 DIV PUSH20 0xFFFFFFFFFFFFFFFFFFFFFFFFFFFFFFFFFFFFFFFF AND PUSH20 0xFFFFFFFFFFFFFFFFFFFFFFFFFFFFFFFFFFFFFFFF AND CALLER PUSH20 0xFFFFFFFFFFFFFFFFFFFFFFFFFFFFFFFFFFFFFFFF AND EQ PUSH2 0x10B JUMPI PUSH1 0x40 MLOAD PUSH32 0x8C379A000000000000000000000000000000000000000000000000000000000 DUP2 MSTORE PUSH1 0x4 ADD PUSH2 0x102 SWAP1 PUSH2 0x2EE JUMP JUMPDEST PUSH1 0x40 MLOAD DUP1 SWAP2 SUB SWAP1 REVERT JUMPDEST CALLVALUE CALLER PUSH20 0xFFFFFFFFFFFFFFFFFFFFFFFFFFFFFFFFFFFFFFFF AND BALANCE LT ISZERO PUSH2 0x165 JUMPI PUSH1 0x40 MLOAD PUSH32 0x8C379A000000000000000000000000000000000000000000000000000000000 DUP2 MSTORE PUSH1 0x4 ADD PUSH2 0x15C SWAP1 PUSH2 0x2CE JUMP JUMPDEST PUSH1 0x40 MLOAD DUP1 SWAP2 SUB SWAP1 REVERT JUMPDEST DUP1 PUSH20 0xFFFFFFFFFFFFFFFFFFFFFFFFFFFFFFFFFFFFFFFF AND PUSH2 0x8FC CALLVALUE SWAP1 DUP2 ISZERO MUL SWAP1 PUSH1 0x40 MLOAD PUSH1 0x0 PUSH1 0x40 MLOAD DUP1 DUP4 SUB DUP2 DUP6 DUP9 DUP9 CALL SWAP4 POP POP POP POP ISZERO DUP1 ISZERO PUSH2 0x1AB JUMPI RETURNDATASIZE PUSH1 0x0 DUP1 RETURNDATACOPY RETURNDATASIZE PUSH1 0x0 REVERT JUMPDEST POP PUSH32 0xEF3D45E3976629248FF5A27C6E07E8C80013B2B1F46611F16EBF46C6BF09BE29 CALLER CALLER PUSH20 0xFFFFFFFFFFFFFFFFFFFFFFFFFFFFFFFFFFFFFFFF AND BALANCE PUSH1 0x40 MLOAD PUSH2 0x1F4 SWAP3 SWAP2 SWAP1 PUSH2 0x2A5 JUMP JUMPDEST PUSH1 0x40 MLOAD DUP1 SWAP2 SUB SWAP1 LOG1 POP JUMP JUMPDEST PUSH1 0x0 DUP2 CALLDATALOAD SWAP1 POP PUSH2 0x20E DUP2 PUSH2 0x3DF JUMP JUMPDEST SWAP3 SWAP2 POP POP JUMP JUMPDEST PUSH1 0x0 PUSH1 0x20 DUP3 DUP5 SUB SLT ISZERO PUSH2 0x22A JUMPI PUSH2 0x229 PUSH2 0x388 JUMP JUMPDEST JUMPDEST PUSH1 0x0 PUSH2 0x238 DUP5 DUP3 DUP6 ADD PUSH2 0x1FF JUMP JUMPDEST SWAP2 POP POP SWAP3 SWAP2 POP POP JUMP JUMPDEST PUSH2 0x24A DUP2 PUSH2 0x33A JUMP JUMPDEST DUP3 MSTORE POP POP JUMP JUMPDEST PUSH1 0x0 PUSH2 0x25D PUSH1 0x1A DUP4 PUSH2 0x329 JUMP JUMPDEST SWAP2 POP PUSH2 0x268 DUP3 PUSH2 0x38D JUMP JUMPDEST PUSH1 0x20 DUP3 ADD SWAP1 POP SWAP2 SWAP1 POP JUMP JUMPDEST PUSH1 0x0 PUSH2 0x280 PUSH1 0xC DUP4 PUSH2 0x329 JUMP JUMPDEST SWAP2 POP PUSH2 0x28B DUP3 PUSH2 0x3B6 JUMP JUMPDEST PUSH1 0x20 DUP3 ADD SWAP1 POP SWAP2 SWAP1 POP JUMP JUMPDEST PUSH2 0x29F DUP2 PUSH2 0x37E JUMP JUMPDEST DUP3 MSTORE POP POP JUMP JUMPDEST PUSH1 0x0 PUSH1 0x40 DUP3 ADD SWAP1 POP PUSH2 0x2BA PUSH1 0x0 DUP4 ADD DUP6 PUSH2 0x241 JUMP JUMPDEST PUSH2 0x2C7 PUSH1 0x20 DUP4 ADD DUP5 PUSH2 0x296 JUMP JUMPDEST SWAP4 SWAP3 POP POP POP JUMP JUMPDEST PUSH1 0x0 PUSH1 0x20 DUP3 ADD SWAP1 POP DUP2 DUP2 SUB PUSH1 0x0 DUP4 ADD MSTORE PUSH2 0x2E7 DUP2 PUSH2 0x250 JUMP JUMPDEST SWAP1 POP SWAP2 SWAP1 POP JUMP JUMPDEST PUSH1 0x0 PUSH1 0x20 DUP3 ADD SWAP1 POP DUP2 DUP2 SUB PUSH1 0x0 DUP4 ADD MSTORE PUSH2 0x307 DUP2 PUSH2 0x273 JUMP JUMPDEST SWAP1 POP SWAP2 SWAP1 POP JUMP JUMPDEST PUSH1 0x0 PUSH1 0x20 DUP3 ADD SWAP1 POP PUSH2 0x323 PUSH1 0x0 DUP4 ADD DUP5 PUSH2 0x296 JUMP JUMPDEST SWAP3 SWAP2 POP POP JUMP JUMPDEST PUSH1 0x0 DUP3 DUP3 MSTORE PUSH1 0x20 DUP3 ADD SWAP1 POP SWAP3 SWAP2 POP POP JUMP JUMPDEST PUSH1 0x0 PUSH2 0x345 DUP3 PUSH2 0x35E JUMP JUMPDEST SWAP1 POP SWAP2 SWAP1 POP JUMP JUMPDEST PUSH1 0x0 PUSH2 0x357 DUP3 PUSH2 0x35E JUMP JUMPDEST SWAP1 POP SWAP2 SWAP1 POP JUMP JUMPDEST PUSH1 0x0 PUSH20 0xFFFFFFFFFFFFFFFFFFFFFFFFFFFFFFFFFFFFFFFF DUP3 AND SWAP1 POP SWAP2 SWAP1 POP JUMP JUMPDEST PUSH1 0x0 DUP2 SWAP1 POP SWAP2 SWAP1 POP JUMP JUMPDEST PUSH1 0x0 DUP1 REVERT JUMPDEST PUSH32 0x596F75722062616C616E6365206973206E6F7420656E6F756768000000000000 PUSH1 0x0 DUP3 ADD MSTORE POP JUMP JUMPDEST PUSH32 0x4F6E6C79204F776E657221200000000000000000000000000000000000000000 PUSH1 0x0 DUP3 ADD MSTORE POP JUMP JUMPDEST PUSH2 0x3E8 DUP2 PUSH2 0x34C JUMP JUMPDEST DUP2 EQ PUSH2 0x3F3 JUMPI PUSH1 0x0 DUP1 REVERT JUMPDEST POP JUMP INVALID LOG2 PUSH5 0x6970667358 0x22 SLT KECCAK256 PUSH16 0xBA02F36CED9D8B446DF0CB386F98E986 0xE0 0xE KECCAK256 SWAP15 0xB5 INVALID EXTCODEHASH 0x4F SWAP14 PUSH22 0x263B3CFB7964736F6C63430008070033000000000000 "
				},
				"gasEstimates": {
					"creation": {
						"codeDepositCost": "213600",
						"executionCost": "24499",
						"totalCost": "238099"
					},
					"external": {
						"getBalance()": "317",
						"sendEther(address)": "infinite"
					}
				},
				"methodIdentifiers": {
					"getBalance()": "12065fe0",
					"sendEther(address)": "48c981e2"
				}
			},
			"storageLayout": {
				"storage": [
					{
						"astId": 3,
						"contract": "lecture/lect34_payable2.sol:MobileBanking",
						"label": "owner",
						"offset": 0,
						"slot": "0",
						"type": "t_address"
					}
				],
				"types": {
					"t_address": {
						"encoding": "inplace",
						"label": "address",
						"numberOfBytes": "20"
					}
				}
			},
			"userdoc": {
				"kind": "user",
				"methods": {},
				"version": 1
			}
		}
	}
}