{
	"lecture/lec30_modifier.sol": {
		"lec30": {
			"abi": [
				{
					"inputs": [],
					"name": "num",
					"outputs": [
						{
							"internalType": "uint256",
							"name": "",
							"type": "uint256"
						}
					],
					"stateMutability": "view",
					"type": "function"
				},
				{
					"inputs": [],
					"name": "numChangeFunction",
					"outputs": [],
					"stateMutability": "nonpayable",
					"type": "function"
				}
			],
			"devdoc": {
				"kind": "dev",
				"methods": {},
				"version": 1
			},
			"evm": {
				"assembly": "    /* \"lecture/lec30_modifier.sol\":75:271  contract lec30{\r... */\n  mstore(0x40, 0x80)\n    /* \"lecture/lec30_modifier.sol\":121:122  5 */\n  0x05\n    /* \"lecture/lec30_modifier.sol\":100:122  uint256 public num = 5 */\n  0x00\n  sstore\n    /* \"lecture/lec30_modifier.sol\":75:271  contract lec30{\r... */\n  callvalue\n  dup1\n  iszero\n  tag_1\n  jumpi\n  0x00\n  dup1\n  revert\ntag_1:\n  pop\n  dataSize(sub_0)\n  dup1\n  dataOffset(sub_0)\n  0x00\n  codecopy\n  0x00\n  return\nstop\n\nsub_0: assembly {\n        /* \"lecture/lec30_modifier.sol\":75:271  contract lec30{\r... */\n      mstore(0x40, 0x80)\n      callvalue\n      dup1\n      iszero\n      tag_1\n      jumpi\n      0x00\n      dup1\n      revert\n    tag_1:\n      pop\n      jumpi(tag_2, lt(calldatasize, 0x04))\n      shr(0xe0, calldataload(0x00))\n      dup1\n      0x32a61695\n      eq\n      tag_3\n      jumpi\n      dup1\n      0x4e70b1dc\n      eq\n      tag_4\n      jumpi\n    tag_2:\n      0x00\n      dup1\n      revert\n        /* \"lecture/lec30_modifier.sol\":196:268  function numChangeFunction() public numChange{\r... */\n    tag_3:\n      tag_5\n      tag_6\n      jump\t// in\n    tag_5:\n      stop\n        /* \"lecture/lec30_modifier.sol\":100:122  uint256 public num = 5 */\n    tag_4:\n      tag_7\n      tag_8\n      jump\t// in\n    tag_7:\n      mload(0x40)\n      tag_9\n      swap2\n      swap1\n      tag_10\n      jump\t// in\n    tag_9:\n      mload(0x40)\n      dup1\n      swap2\n      sub\n      swap1\n      return\n        /* \"lecture/lec30_modifier.sol\":196:268  function numChangeFunction() public numChange{\r... */\n    tag_6:\n        /* \"lecture/lec30_modifier.sol\":258:260  20 */\n      0x14\n        /* \"lecture/lec30_modifier.sol\":252:255  num */\n      0x00\n        /* \"lecture/lec30_modifier.sol\":252:260  num = 20 */\n      dup2\n      swap1\n      sstore\n      pop\n        /* \"lecture/lec30_modifier.sol\":178:180  15 */\n      0x0f\n        /* \"lecture/lec30_modifier.sol\":172:175  num */\n      0x00\n        /* \"lecture/lec30_modifier.sol\":172:180  num = 15 */\n      dup2\n      swap1\n      sstore\n      pop\n        /* \"lecture/lec30_modifier.sol\":196:268  function numChangeFunction() public numChange{\r... */\n      jump\t// out\n        /* \"lecture/lec30_modifier.sol\":100:122  uint256 public num = 5 */\n    tag_8:\n      sload(0x00)\n      dup2\n      jump\t// out\n        /* \"#utility.yul\":7:125   */\n    tag_14:\n        /* \"#utility.yul\":94:118   */\n      tag_16\n        /* \"#utility.yul\":112:117   */\n      dup2\n        /* \"#utility.yul\":94:118   */\n      tag_17\n      jump\t// in\n    tag_16:\n        /* \"#utility.yul\":89:92   */\n      dup3\n        /* \"#utility.yul\":82:119   */\n      mstore\n        /* \"#utility.yul\":7:125   */\n      pop\n      pop\n      jump\t// out\n        /* \"#utility.yul\":131:353   */\n    tag_10:\n        /* \"#utility.yul\":224:228   */\n      0x00\n        /* \"#utility.yul\":262:264   */\n      0x20\n        /* \"#utility.yul\":251:260   */\n      dup3\n        /* \"#utility.yul\":247:265   */\n      add\n        /* \"#utility.yul\":239:265   */\n      swap1\n      pop\n        /* \"#utility.yul\":275:346   */\n      tag_19\n        /* \"#utility.yul\":343:344   */\n      0x00\n        /* \"#utility.yul\":332:341   */\n      dup4\n        /* \"#utility.yul\":328:345   */\n      add\n        /* \"#utility.yul\":319:325   */\n      dup5\n        /* \"#utility.yul\":275:346   */\n      tag_14\n      jump\t// in\n    tag_19:\n        /* \"#utility.yul\":131:353   */\n      swap3\n      swap2\n      pop\n      pop\n      jump\t// out\n        /* \"#utility.yul\":359:436   */\n    tag_17:\n        /* \"#utility.yul\":396:403   */\n      0x00\n        /* \"#utility.yul\":425:430   */\n      dup2\n        /* \"#utility.yul\":414:430   */\n      swap1\n      pop\n        /* \"#utility.yul\":359:436   */\n      swap2\n      swap1\n      pop\n      jump\t// out\n\n    auxdata: 0xa2646970667358221220eaa0925a46d633c697f944ae0c1b8ea1c32c76afcd1b0b5c4faae6e1cf7cc46e64736f6c63430008070033\n}\n",
				"bytecode": {
					"linkReferences": {},
					"object": "6080604052600560005534801561001557600080fd5b5060d7806100246000396000f3fe6080604052348015600f57600080fd5b506004361060325760003560e01c806332a616951460375780634e70b1dc14603f575b600080fd5b603d6059565b005b6045606b565b60405160509190607e565b60405180910390f35b6014600081905550600f600081905550565b60005481565b6078816097565b82525050565b6000602082019050609160008301846071565b92915050565b600081905091905056fea2646970667358221220eaa0925a46d633c697f944ae0c1b8ea1c32c76afcd1b0b5c4faae6e1cf7cc46e64736f6c63430008070033",
					"opcodes": "PUSH1 0x80 PUSH1 0x40 MSTORE PUSH1 0x5 PUSH1 0x0 SSTORE CALLVALUE DUP1 ISZERO PUSH2 0x15 JUMPI PUSH1 0x0 DUP1 REVERT JUMPDEST POP PUSH1 0xD7 DUP1 PUSH2 0x24 PUSH1 0x0 CODECOPY PUSH1 0x0 RETURN INVALID PUSH1 0x80 PUSH1 0x40 MSTORE CALLVALUE DUP1 ISZERO PUSH1 0xF JUMPI PUSH1 0x0 DUP1 REVERT JUMPDEST POP PUSH1 0x4 CALLDATASIZE LT PUSH1 0x32 JUMPI PUSH1 0x0 CALLDATALOAD PUSH1 0xE0 SHR DUP1 PUSH4 0x32A61695 EQ PUSH1 0x37 JUMPI DUP1 PUSH4 0x4E70B1DC EQ PUSH1 0x3F JUMPI JUMPDEST PUSH1 0x0 DUP1 REVERT JUMPDEST PUSH1 0x3D PUSH1 0x59 JUMP JUMPDEST STOP JUMPDEST PUSH1 0x45 PUSH1 0x6B JUMP JUMPDEST PUSH1 0x40 MLOAD PUSH1 0x50 SWAP2 SWAP1 PUSH1 0x7E JUMP JUMPDEST PUSH1 0x40 MLOAD DUP1 SWAP2 SUB SWAP1 RETURN JUMPDEST PUSH1 0x14 PUSH1 0x0 DUP2 SWAP1 SSTORE POP PUSH1 0xF PUSH1 0x0 DUP2 SWAP1 SSTORE POP JUMP JUMPDEST PUSH1 0x0 SLOAD DUP2 JUMP JUMPDEST PUSH1 0x78 DUP2 PUSH1 0x97 JUMP JUMPDEST DUP3 MSTORE POP POP JUMP JUMPDEST PUSH1 0x0 PUSH1 0x20 DUP3 ADD SWAP1 POP PUSH1 0x91 PUSH1 0x0 DUP4 ADD DUP5 PUSH1 0x71 JUMP JUMPDEST SWAP3 SWAP2 POP POP JUMP JUMPDEST PUSH1 0x0 DUP2 SWAP1 POP SWAP2 SWAP1 POP JUMP INVALID LOG2 PUSH5 0x6970667358 0x22 SLT KECCAK256 0xEA LOG0 SWAP3 GAS CHAINID 0xD6 CALLER 0xC6 SWAP8 0xF9 DIFFICULTY 0xAE 0xC SHL DUP15 LOG1 0xC3 0x2C PUSH23 0xAFCD1B0B5C4FAAE6E1CF7CC46E64736F6C634300080700 CALLER "
				},
				"gasEstimates": {
					"creation": {
						"codeDepositCost": "43000",
						"executionCost": "22199",
						"totalCost": "65199"
					},
					"external": {
						"num()": "2429",
						"numChangeFunction()": "27250"
					}
				},
				"methodIdentifiers": {
					"num()": "4e70b1dc",
					"numChangeFunction()": "32a61695"
				}
			},
			"storageLayout": {
				"storage": [
					{
						"astId": 4,
						"contract": "lecture/lec30_modifier.sol:lec30",
						"label": "num",
						"offset": 0,
						"slot": "0",
						"type": "t_uint256"
					}
				],
				"types": {
					"t_uint256": {
						"encoding": "inplace",
						"label": "uint256",
						"numberOfBytes": "32"
					}
				}
			},
			"userdoc": {
				"kind": "user",
				"methods": {},
				"version": 1
			}
		}
	}
}